:020000041000EA
:1000000000B5324B212058609868022188439860DF
:10001000D860186158612E4B002199600221596106
:100020000121F02299502B49196001219960352056
:1000300000F044F80222904214D00621196600F024
:1000400034F8196E01211966002018661A6600F04E
:100050002CF8196E196E196E052000F02FF8012189
:100060000842F9D1002199601B49196000215960AB
:100070001A491B48016001219960EB211966A021F2
:10008000196600F012F800219960164914480160C1
:100090000121996001BC002800D000471248134993
:1000A000086003C880F30888084703B5996A0420EC
:1000B0000142FBD001200142F8D103BD02B5186610
:1000C0001866FFF7F2FF186E186E02BD00000240BE
:1000D000000000180000070000035F00212200005C
:1000E000F4000018222000A00001001008ED00E03C
:1000F00000000000000000000000000074B24E7A12
:1001000000200420F7010010C3010010C5010010F9
:10011000C1010010C1010010C1010010C101001097
:10012000C1010010C1010010C1010010C701001081
:10013000C1010010C101001051DA0210CB01001002
:10014000CD010010CD010010CD010010CD01001037
:10015000CD010010CD010010CD010010CD01001027
:10016000CD010010CD010010CD010010CD01001017
:10017000CD010010CD010010CD010010CD01001007
:10018000CD010010CD010010CD010010CD010010F7
:10019000CD010010CD010010CD010010CD010010E7
:1001A000CD010010CD010010CD010010CD010010D7
:1001B000CD010010CD010010CD010010CD010010C7
:1001C00000BE00BE00BE00BE00BE00BEEFF3058054
:1001D000103800BEF2EB88716C000510E8000510C5
:1001E0003402001090A31AE700201F49086006C8D7
:1001F00081F3088810471D48006800282FD10DA4FE
:100200000ECC002902D000F012F8F9E71849194A7B
:10021000002000E001C19142FCD1174988471749ED
:1002200088471749884700BEFDE701C901C29A42C5
:10023000FBD37047E8000510C00000208445002073
:10024000AC4505100000042000000420AC4505105A
:10025000001004200010042000000000704709482E
:1002600032F0BFFA0047000008ED00E0000000D0C7
:1002700088450020C05B0020B149031045D402101E
:10028000814A03105756000006005250ABB360532A
:10029000ADFF041006005250861C030208780410BB
:1002A000060052505422A29DB8FF0410050052507F
:1002B000DE65F468AC450510F8B5C0460448054B4A
:1002C00010B5834203D0044B002B00D0984710BDDB
:1002D00084450020844500200000000006480749AE
:1002E000091A8B10C90FC91810B5491003D0044B57
:1002F000002B00D0984710BD844500208445002085
:100300000000000010B5074C2378002B09D1FFF73F
:10031000D5FF054B002B02D0044800E000BF0123AD
:10032000237010BD9046002000000000D0C10310D3
:10033000054B10B5002B03D00449054800E000BF71
:10034000FFF7CCFF10BDC04600000000944600201F
:10035000D0C10310030020B5500C1500520892B212
:10036000002904D0E90702D40B4819F0B3F99042F0
:1003700006D198420FD002000849094818F0C4F984
:10038000984204D9C21A0749054818F0BDF99A42A3
:1003900001D20549F1E720BDD0C10310F8C1031017
:1003A0000CF0031031C2031063C20310F0B5002536
:1003B000170087B00C9C0D9E039004910593029545
:1003C0000195059B9D4206D1019B039A93423AD227
:1003D000214819F07FF9039B9D4211D263889B0548
:1003E000F6D4019B049A01330193AB00D058FF224D
:1003F00063881340012B20D10EF04CF8307013E0CD
:10040000022321880022C9003800194309F04AFB61
:1004100000280DD16388DB0504D522880F491048D8
:1004200018F072F963683360013508340436C8E7A0
:10043000029B406801330293D9E7022B01D10DF0F2
:10044000DBFE3060F0E73B68029ADB08934201D99B
:100450000448BEE707B0F0BDA9C2031092C2031062
:100460000CF00310CAC2031070B515001E00040082
:1004700086B08200AA1803A809F0E8FA0B9B2900AD
:1004800001930A9B2000009303AA3300FFF78EFF1D
:1004900006B070BD10B5014819F03EF9E8C203106E
:1004A00010B504000161880009F08AFA606110BD8E
:1004B00010B50400002902D0C06809F0B5FA6069DF
:1004C00009F0B2FA10BD70B504000D0001290BDC73
:1004D00001210369494240699A0039F03FFE002337
:1004E00025706370636070BD406809F069FA6368E5
:1004F000E060A360F3E730B5030044780020844255
:1005000008D11D7820005A68022D01D1D8688018C2
:100510008918596030BD002343700378012B03D83C
:10052000426843698900CA50704742684B1E9B1855
:10053000494219404160704770B50C001500FFF743
:10054000DAFF0419002803D170BD05702D0A0130AF
:10055000A042FAD1F8E710B50C000221FFF7CBFF5B
:10056000002802D00470240A447010BDF8B50500BC
:1005700003290DD80024104B5F5CB5210902280027
:100580003943FFF7E8FF261E0DD1AF61EC61F8BDDE
:100590000123023999430C00FE27EEE728000749A2
:1005A000FFF7D9FF7F3E7F2EF8D805492800314359
:1005B000FFF7D1FFE9E7C0465EC30310FFB00000BC
:1005C00080B0000070B5C5690400002D07D07F2DF4
:1005D0000DD8B021090220002943FFF7BCFFBD213F
:1005E000A369090220001943FFF7B5FF70BD200081
:1005F0000249FFF7B0FF7F3DE9E7C0467FB000004A
:10060000F7B5FF270B020E00111239400193194371
:1006100080239B01194305001400FFF79CFFF100A4
:100620000E438021890028003143FFF794FFC02149
:10063000019B3C401C43890128002143FFF78BFFAD
:10064000F7BD70B50D0004211400FFF754FF00281A
:1006500005D0057084702D0A240A4570C47070BDE1
:1006600010B5DB0011431943FFF775FF10BD10B53E
:10067000072A09D8D20007290BD80A438C21C901BF
:100680001143FFF768FF10BD083AD30040221A4318
:10069000F1E7083911438022EFE7F7B505000C00B8
:1006A0001600072913D8072A11D81F00089A974067
:1006B000FF2F0DD8B14202D03200FFF7D8FFC02182
:1006C00024022743890139432800FFF744FFF7BD7F
:1006D000CA0001921900FF22914318D1B44223D0DD
:1006E00021020B43802189011943FFF734FF089B46
:1006F000280099012143E3001943FFF72CFFE30091
:10070000B10119430C43C02149012143DCE7B44244
:100710000AD021003A00FFF773FFA1012143C02452
:10072000019B64011943F0E7072601216640B140AF
:100730000091B421009B090219432800FFF70BFF29
:100740003A0031002800FFF75BFFB1012143C024CC
:10075000019B6401194321432800FFF7FCFEBC21E3
:10076000009B09021943AFE74369890070B5CC5873
:10077000E021050043680902E41A043C23055B0DEF
:100780001943FFF7E8FE2B780120022B08D1E40A79
:10079000E302002C04D080221201981843425841F1
:1007A00070BDF8B5050000200F0083421AD16B69B7
:1007B0009200D4586B68FF26E41AD023043C6110E1
:1007C00031403F021B02394328001943FFF7C3FEA3
:1007D0002B780120022B05D1B44303D0601CFF30DD
:1007E00043425841F8BD4369F822890070B5CC589E
:1007F000F021050043681202E41A043C63109BB226
:100800001A4363025B0D09021943FFF71AFF2B78A5
:100810000120022B08D1A40DA305002C04D08022B6
:10082000D20398184342584170BD0000F8B547689C
:1008300004000E001500BB0703D5BF210902FFF716
:100840008AFE90213602C90131432000FFF783FE62
:1008500020000649FFF77FFEA9B22000FFF77BFECC
:100860002000290CFFF777FE3800F8BD01E00000FA
:10087000F7B506000C00170007290AD8FF239A4392
:1008800007D10C028021274389013943FFF763FE1A
:10089000F7BDFB17FD185D40280034F01BF900235D
:1008A000019000939F4203D0280034F019F9009082
:1008B000009B01989C46604417281AD91D41E9B253
:1008C000250229438025AD0130002943FFF743FE6F
:1008D000009BE0002043990101433000FFF73BFEFD
:1008E000002FD5DA2300220030000A49FFF7B8FEB6
:1008F000CEE72B0C05D12A0021003000FFF780FE47
:10090000EEE7002F00DA6D422A0021003000FFF7E9
:100910008DFFBDE74042000010B50B0001780129B2
:1009200006D9FF211C008C4302D0064818F0F4FEC3
:1009300011029022DBB2194312021143FFF70BFEA2
:1009400010BDC04626C3031010B50378012B06D98D
:10095000FF2314009C4302D0054818F0DDFED2B2FC
:1009600009021143982212021143FFF7F4FD10BD52
:1009700026C30310D2B209021143A82210B51202F5
:100980001143FFF7E8FD10BD43699200D358426858
:1009900070B59B1A01221A430C3A0C000500FFF7B0
:1009A0002FFEB2212200280023000902FFF758FE83
:1009B000802321011940793B1C400C430249280047
:1009C0002143FFF7C8FD70BD7844000037B504002F
:1009D0000D0007290ED8072A0CD81F2B0AD8D100E2
:1009E000D02229439B011943D20111432000FFF774
:1009F000B2FD37BD0221200000911F3B2900FFF707
:100A00004CFEE9000D4301492943EFE7C06F0000A8
:100A10004369890010B5CC584368E11A0439CB0A00
:100A2000DB02621C0CD0CA1C0ADA0E4A934215D1B2
:100A3000E0230905490D1B021943FFF78CFD10BD8A
:100A4000002BF5D0074A9342F2D0BF210902FFF7ED
:100A500082FD631CF3D0044818F05EFE002BF4D135
:100A6000E6E7C04600F8FFFF48C3031070B5040076
:100A7000930015004269985863680A02C31A043B40
:100A8000411C11D0D91C0FDAFF201E000D498643EE
:100A90008E4209D15910D023014011431B0220007E
:100AA0001943FFF758FD70BD802149004A40D0210D
:100AB000090220001143FFF74EFD29002000FFF737
:100AC000A7FFF0E700FFFFFF043A52100902D2B27D
:100AD0000A43D02110B509021143FFF73CFD10BDB8
:100AE000E02310B5043909051B02490D1943FFF72E
:100AF00032FD10BD70B514000B0007222100050067
:100B0000FFF764FFE1008F24E40128002143FFF791
:100B100022FD70BD73B50B0069464C1D21007F2678
:100B20001500013C35402570D209F9D1091B9847C1
:100B300000280AD080260200230001AD7642AB4295
:100B400004D16A4612791B1BC25473BD1978013354
:100B5000314311700132F2E7030030B502687F249F
:100B600000201178C0010D0049B225400132284310
:100B70000029F6DB1A6030BD07B5019001A8FFF728
:100B8000EBFF0EBD037801307F2BFBD870470000D0
:100B9000F0B595B00C9303680B92069383890E0011
:100BA0000A93436807005A1C426003221B78012104
:100BB0001A4001920022042504920392029278685E
:100BC0005BB2441CA446002B1EDB3F220023012005
:100BD0009446062509930D937A68099C511C796007
:100BE00012781100014099400C4309946446511059
:100BF00021402C005C43A1400D9C52B20C430D944B
:100C0000002A1EDA0133E7E763467B600378029C23
:100C100098110840904004431800284090400294E6
:100C2000019C0443D810084090400194039C044365
:100C30001800084090400394049C0132044304943B
:100C4000BDE70021BB68F9810793043305930A9B34
:100C500005989B001A00089339F080FA019A0A9BC4
:100C60009B1A039A0F939D1A013D059BAD005D19D8
:100C70000423029A1340019AB24200D373E0002B7E
:100C800004D133009B499C4817F03EFD2B1F1C00EC
:100C9000019B99000C9B5918019BF01A15F01AF84A
:100CA00028602500019B0C9A079908989B00091859
:100CB0009B189A4200D07EE00823029A13400B9AB8
:100CC00010931A430223002A00D1F7E00022029C6D
:100CD0000E92029A1C4011941A4204D00B980FF005
:100CE000A7F80E9028600C9BB4001C1900230293F7
:100CF000029B0B9A934262D10F9B06999D00059B24
:100D0000049C5A19049B03339B00C8181100002C43
:100D100000D097E005990C3B8C46D318089A6244A2
:100D20009A4200D997E07868FFF72CFF00261390CD
:100D3000019BB34200D098E0079B5D19039BA3423F
:100D400000D098E07B680D9D9C4665442E00099B71
:100D50005B190193019BB34200D0BEE0099BED18E3
:100D60007D6015B0F0BD002B02D0644B043D6B607C
:100D70000823029A13400B9A134314D1019B049A3F
:100D80009A1AB24200D97CE7049B019A9B199B1ADC
:100D9000069A9B000899D318079A501832000199B7
:100DA0000433914201D133007DE79100DC68494270
:100DB00044500132F3E701CA0439486079E77B689F
:100DC000002618001393FFF7DDFE25681390019BA2
:100DD000039A9B18B34205D8119B002B26D1484992
:100DE000EA0817E013A8FFF7B7FE0222069B4000AF
:100DF0005B689B68C35ADB0013439D4214D10A9B76
:100E0000013B9E1B9640059B9E193368002B04D026
:100E10003C49EA08384817F077FC63683360029B66
:100E200008340133029363E70136D0E70E9B0122B9
:100E3000181D290008F036FE4368002BE8D16368CE
:100E40004360ECE70E68002E01D106680E60013C9D
:100E5000043104385BE70433191F0968002900D006
:100E60005EE7D21A28499210D4E71398FFF78AFE5A
:100E7000013613905CE713A8FFF76EFE2A68002A7C
:100E800016D1069B40005B689B68C65A109B002BDE
:100E900011D00223F1001943049B069804339B00F0
:100EA0001858043008F0FEFD002804D043682B6079
:100EB0000134043D42E732001449ABE7039A002AAB
:100EC00002D0134818F006FC029A1A4200D139E702
:100ED00003980EF0ADFF286034E70A9B5C1E337860
:100EE0000136E41A059BA4001C1920680EF064F971
:100EF00020602FE7F8C103100CF003104C0504101C
:100F000091C3031062C30310B2C30310E4C3031000
:100F100014C4031010B50468E4684460040010347D
:100F20008460FFF735FE10BD70B50568EC68AD68EC
:100F30002468002C01D0A4006559040010344560D9
:100F40008460FFF725FE70BD10B5402828D051D829
:100F5000022398433C284DD1423908002F2949D813
:100F60003BF086F84648484848484B1848481848D7
:100F70004818184E4818484848484848484848487B
:100F80004848484846484E4B18484B184848184867
:100F90004848484E01210420002A00D0116010BDAD
:100FA000012923D04239CBB208002F2B22D82F2978
:100FB00020D83BF05DF81D1F1F1F1F1F1A181F1F91
:100FC000181F1F1818281F181F1F1F1F1F1F1F1F44
:100FD0001F1F1F1F1F1F1D1F281A181F1A181F1F32
:100FE000181F1F1F1F280421D5E702210800D3E77F
:100FF0000121FBE7054818F095F901210220CBE714
:1010000001210820C8E70821F0E7C0463BC40310CF
:1010100010B5512812D8412803D8012823D0002325
:101020001DE042380F28FAD83AF0FAFF1DF9F9F915
:10103000F9F92225F9F925F9F94447316238C3B2A3
:101040000F2BECD80F28EAD83AF0EAFF08E92DE98F
:1010500028E90F37E9E937E9E9E9E91A8B56012070
:101060005B0018430BE08B5CF9E75200535EF6E738
:101070005200535AF3E79200505810F0E5FB10BDB0
:10108000D2008A181068516810F047FBF7E7D200C9
:101090008A181068516810F05BFBF0E79200505816
:1010A0000FF058FBEBE7D2008A181068516834F053
:1010B00087F8F5E792005058E1E79200505810F099
:1010C0003BFBDCE7F7B507000C000126002A02D144
:1010D000421E9B18023E00200021002C06D0002258
:1010E00000259A56D40F00216042A941002211E048
:1010F000040E00940C020194040225001C780132B5
:10110000A4462C0065462C432000009D019C9B19A1
:1011100025432900BA42EBD103B0F0BDF0B585B04C
:10112000019203AA04000D001F001E68FFF70CFFC8
:10113000402C09D1039B019A043CB61A5A1EB218DE
:101140005E42019B16409E195A2133183E3C3B607B
:10115000A942894163425C4149423300E2B2FFF750
:10116000B1FF4F2D03D0532D03D112F0B9FF05B0BD
:10117000F0BD652D22D1840583B24004FF22A40D69
:10118000C00E1F2802D0021E09D07032D80BC00733
:10119000D2051043640320430FF0DCFAE7E7002C8C
:1011A000F4D080257020ED00610002008CB201387F
:1011B0002942F9D015496418A4B2E7E7662DEBD0AF
:1011C000642D02D133F0FCFFE6E75A2D11D98022BD
:1011D0000023D20512184B411400002B06D18023A6
:1011E0001B069C4202D210F0A7FAC0E710F095FA55
:1011F000BDE7002906D18023DB05984202D210F01A
:1012000023FBB4E710F0A4FAB1E7C04600FCFFFFEF
:1012100013B5040001931000002904D1220001A994
:1012200038F0A2FF13BD01AB1B191419A042F9D06D
:10123000013B1A7802700130F8E70000F0B589B080
:101240001F000E9B140005AA1D6802900191FFF774
:101250007BFE029B0600402B08D1059BED1B5A1E0E
:10126000AA185D423C2315407D1902930E9AAB19D2
:101270001360029B3E3B03935F425F41019BFFB2C1
:10128000652B1CD013D84F2B45D0642B55D0A3070A
:1012900000D070E0414B22689A4200D06BE02B00F6
:1012A00032003900200010F0E2F909B0F0BD019BD6
:1012B000662BECD120000CF0F5FF04002BE02000A1
:1012C0000CF0F0FF4402A40DC30400D50134C10D9D
:1012D000C9B21F23FF2918D00023994215D0703BB3
:1012E000CB1822D50B3325DB80227023D20022437A
:1012F000591A92B20A410121130094B2CC400B401A
:101300000A4202D000236418A4B2C00FC0030443F1
:101310009B021C43A4B23000042E00D904202300F9
:101320002A003900FFF774FFBFE73F2BEDDD1F23D5
:101330000024EAE700242300E7E720000CF0B2FFD6
:1013400035F0CAF91024BB00069007911B1904AAB6
:101350009B18083B2A001B6839000420FFF758FF40
:10136000039B04355A1E93419B001B1904AA9B182A
:10137000083B1C68CFE720000CF03EFF0400042E61
:10138000C9D9C11732002800C9B238F0E7FE029B64
:101390003E2BC0D1331FED18BDE7C04630F403101B
:1013A00070B50C00712807D8612806D801281DD017
:1013B0004238C1B20F290DD970BD62380F28FBD851
:1013C0003AF02EFE14FA25FA1FFA162DFAFA2DFA23
:1013D000FAFAFA190F28EFD83AF022FE08EEEEEEEC
:1013E000EEEE0A21EEEE21EEEEEE210DA354E3E740
:1013F00052001353E0E7D200A4182360DB176360A8
:10140000DAE71800950035F0FDF86051D4E7D20016
:1014100018008C1833F080FE20606160CCE79200E9
:101420001351C9E7F7B506000F0014001D0064282A
:101430000DD0662804D04F2813D19400E35105E065
:10144000940018000F190CF02DFF3860F7BDD40080
:1014500018000F190CF026FF35F03EF9386079605E
:10146000F4E703232A001A4001921D4211D10E4BCA
:101470002A689A420DD10100019A4020FFF764FDCD
:1014800023004343020001992800FB1810F0EFF8F5
:10149000DCE728000CF0B0FE220003003900300029
:1014A000FFF77EFFD2E7C04630F4031073B50C009F
:1014B00001A9206813F074F90500606813F0F0F8D2
:1014C00029000023019A08F04BFA0500A06813F0E8
:1014D000E7F8512807D00D4B984213D0502813D06D
:1014E0000B4817F01FFF01260A4908200CF0B7FD32
:1014F00000230400310028001A0017F00FFA606082
:10150000200076BD0026EFE70226EDE76603000027
:1015100048C403108CC40310D0231B061B68F0B50D
:101520001500344A9B009B5885B01A699446DA68C6
:1015300001281BD94C68062C15D0A60710D12E4EB9
:101540002768B7420CD12600022811D088680628E7
:101550000ED0860704D1060007682748874207D0C7
:10156000002018F0B7F816006446EDE71600644650
:101570000F6803210F4222D12049386888421ED1CA
:1015800061460392029168461C61DE601C490CF0C2
:10159000F7FC03237868184208D10368194A93427C
:1015A00002D0194A934201D143685C6017F0AEF94A
:1015B000040001200CF0F2FC200005B0F0BD002D6D
:1015C0000CD1380013F06CF808F0D7F9013522007F
:1015D0003300290017F0A2F90400EDE7694605225F
:1015E00038000DF057F80023019A0099DF2008F029
:1015F000B7F9ECE7804B0020F8EB03108CC4031024
:10160000A183011058F10310F0F1031010B502226C
:10161000FFF782FF10BD10B50122FFF77DFF10BD5F
:1016200010B50022FFF778FF10BD70B506000D0061
:1016300000246B68A34200D870BDAA68E3009958E3
:10164000002904D0042902D0300010F01DFB013421
:10165000EFE70000F0B587B0002806D1544955489F
:101660000AF012F8062007B0F0BD0E68524B9E42F9
:1016700056D10021080010F000FD50490390FFF7FB
:10168000D4FF4F490398FFF7D0FF039F4D4E3578A5
:10169000002D14D14C4A03A9012010F0E9FB039856
:1016A00005AA04A910F000FD049B03339B080193D5
:1016B000019B404EAB4211D130004449D0E730008D
:1016C0003AF02EFDC11E0400300012F063FC01341C
:1016D0000100380010F0D8FA3619D8E72F00059A23
:1016E000BB00985812F0F2FF0100300009F0CCFF67
:1016F000019BFF18049B9F420CD212231C1A002C42
:1017000006DD013CEBD33000314909F0BDFFF8E7BD
:101710001234F4E730002F4909F0B6FF0135C7E76E
:1017200030000CF0A9FC0400224D2B49280009F0E0
:10173000ABFF002130000CF0D1FC2800E2882749E3
:101740000AF036FB264B9C4224D1746800260434F0
:1017500063689E4200D385E7A268F300D3181F6830
:10176000002F15D05B681F492800019309F08CFFFA
:10177000002138000CF0B2FC1B49280009F084FF5E
:10178000002101980CF0AAFC2800124909F07CFF06
:101790000136DDE7154B9C4200D13400E07C002887
:1017A00000D15FE70330800024186468CEE7C046AC
:1017B0001079041074E003101A170000D0F603101B
:1017C0003CF6031078D10410E0EB0310A0C4031022
:1017D0002071041090760410C4C40310CCC403100C
:1017E00064F703101F710410DCC403100808041010
:1017F000022210B581680348C900114308F052F96C
:1018000010BDC0461450002010B518F00CFF084958
:10181000082204003AF07CFC01002000002904D1D9
:101820000A00083007F0F8FB10BD20F02DFEFBE7A2
:10183000F0C4031010B50400FFF7E6FF02280BD038
:1018400063686D22991E200018F058FF2000FFF7F2
:10185000DBFF0023022800D10223180010BD000086
:1018600010B50400FFF7D0FF012806D0200003497F
:1018700018F038FF2000FFF7DDFF10BD2DA5041084
:10188000F0B5D026360633682F4D9B0089B05B59E2
:1018900000AF040039611869BA21FA600EF0B0FA9D
:1018A000336878619B005B5900221869274904302E
:1018B00008F0F8F81C230600F918786912F070FF98
:1018C000721E96410100FB69A41BC318002C05D1B0
:1018D0008B420CD11E491F4816F00CFF8B42F7D9E2
:1018E000013B1A782E3A50424241A41AEEE76A466A
:1018F0005E1AFB681B68F4187B61631CBB600733CE
:10190000DB08DB00D31A9D466D463200280038F014
:101910002BFC7B69002B0AD02E23AB553B69701C36
:101920001B687A691900281838F01EFCBC68210071
:10193000280016F059F916F03EFABD463B691860CA
:10194000FB681C6009B0F0BD804B00206A0E0000EF
:10195000F9C40310CCED031030B5D3000D00022202
:10196000E52185B01A434900040017F02DF9D02372
:101970001B061B680C499B005B5862681969684626
:101980000291D9681A610391DA6008490CF0F8FAFB
:1019900000222100280003F091FF16F0B7FF01207C
:1019A0000CF0FCFA05B030BD804B0020A183011083
:1019B000F0B5050085B008000F0018F034FE0822CD
:1019C000234904003AF0A4FB002819D12600083668
:1019D0006A46300001A907F01FFB019B022B0FD1C3
:1019E000009C2B002200083303CA03C3300016F00A
:1019F000C7F902002800A168FFF7AEFF05B0F0BDEF
:101A0000200016F0BDF9060078682418033C2378FE
:101A10006D2B08D1300002A9029516F053F8320060
:101A200003990298E8E7300007F0A7FF0222E521BA
:101A3000040003684900DB0028001A4317F0C4F8CB
:101A40006A6801211300200016F068FFD6E7C0463F
:101A5000F0C40310F0B50300B3B00868032B0AD933
:101A6000CA680392042B27D00B695C10002B05DA9F
:101A7000002017F057FC06230024039305A912F059
:101A80008FFE0690002C04D0200005AA06A9FFF7BF
:101A9000F7FE059B002BEBD00026012335000093B9
:101AA0000296059B009A934208D2039B062B00D115
:101AB000029D280033B0F0BD0024DFE7009A0698AD
:101AC000934202D0835C2E2B26D1009916F08CF81D
:101AD000009B0190991B069B981916F085F85D4BA9
:101AE0000700AC33186808AA07A90CF02FFC079B65
:101AF000002B15D0019B0022D90002235648194320
:101B000007F0D0FF00280BD04468029B002B00D1C7
:101B100002942500009B5E1C009B01330093C0E7EC
:101B2000802112AA0EA818F024FD002D38D129001A
:101B3000380010F08DFC041EE7D1464B0AAAAC33E6
:101B4000186809A90CF002FC2C00099B9C4206D3E2
:101B50000121380010F07CFC041ED6D13FE00023A8
:101B60000A9A0F93A30098580BA912F019FE0B9A2A
:101B70000100002A06D00EA818F0BCFC2F210EA8E8
:101B800018F067FD380016F016F901000EA818F0DD
:101B9000A9FD0EA8FFF764FE061E25D10134D4E787
:101BA000CE2128000BAAFF3116F022FD0B98002849
:101BB00015D012F08BFD01000EA818F093FD2F2117
:101BC0000EA818F046FD380016F0F5F801000EA832
:101BD00018F088FD0EA8FFF743FE061E04D1019AF7
:101BE0001E491F4816F090FD019810F00FFC019B54
:101BF00004001C490BA80D930CF0C2F9012E23D14F
:101C00000F99109812F0C6F9CE210200FF31200082
:101C100016F0DAFF0EA814490F9E18F063FD0EA807
:101C2000FFF708FE022803D120000EA9FFF7C0FE2F
:101C30000F96002D04D022003900280016F0C4FFB2
:101C400000200CF0ABF960E720000EA9FFF7B0FE12
:101C5000EFE7C046C04F00201450002017C5031006
:101C6000CCED0310F1170010B5A30410036A1B8B11
:101C7000012B02D0C3685918C160704710B5040029
:101C8000836A406A9B6F9847238B226A01339BB219
:101C90002383918C994200D2938410BD10B5040027
:101CA000038B013B0383836A406A0833DB6F9847E9
:101CB00001212000FFF7DAFF10BDF7B507000C0087
:101CC0001E0000290DD003230D001D40194211D123
:101CD0004B68D9B291420DD11B0A0193019B9D42E1
:101CE00000DBF7BD2300AA00083338009958B0473D
:101CF0000135F3E721003800B047F2E7F0B589B0CD
:101D000004000D0005920693002B03D00823CA8A15
:101D10001343CB823022059BEB83236AD98A0A4383
:101D2000DA821B78002B44D1A36A2900B4331E68E1
:101D3000059A069B606AB04709B0F0BDD26AFB0005
:101D4000D118D35C0791053B012B1FD8002318E065
:101D5000049BEA6ADB00D018D35C062B0FD1079BEB
:101D60005968436899420AD1079B606A5A88A36AF6
:101D70001B691E000023B047039B01330393049BA0
:101D800001330493049A2B8D9342E1DC0137226ADC
:101D9000138DBB42D2DC039B002BC5D0069AA36AED
:101DA0000092B8331F682900059B039A606AB84700
:101DB000C2E700270397EAE7F8B50F0011001A0001
:101DC0000023040085780669837003610F4BFFF7D9
:101DD00074FF6368002B18D1618A00290BD0228A16
:101DE000002A08D1A36A606AA0331B689847A36AD7
:101DF000606A1B6C9847238A39002000628AFFF7CB
:101E00007DFF6B1E9D412661A570F8BD2D2A001037
:101E100010B59D22024B8968FFF74FFF10BDC046E9
:101E2000DD46001010B56B22024B8968FFF745FFB5
:101E300010BDC046E143001010B50400836A0021C4
:101E400088331B68406A9847A36A606A0F211B6B3E
:101E50009847A36A606ACC331B6801219847032125
:101E60002000FFF703FF10BD70B50400836A002255
:101E70005B6C406A9847A36A606AC0331D680023A0
:101E80001A001900A8472000FFF7D6FF70BD10B553
:101E9000836A896800221B6D406A0909984710BD52
:101EA00010B5836A8968DB6B406A984710BD10B52E
:101EB0000400080011001A0017F09EFD236A436019
:101EC00000238360E369002B01D1E06110BD1A009B
:101ED0009B68002BFBD19060F8E770B54378040055
:101EE0000D00012B06D1036A0A001B8B0221FFF7AC
:101EF000DEFF2861AA6829694C232000FFF75CFFF8
:101F000070BD70B51300427805000C00012A04D1A1
:101F10000A000721FFF7CBFFA061A6692800310066
:101F20004623E268FFF748FFB08A70BDF0B589B07C
:101F300005000C0000AF002902D10121116018E05A
:101F4000032319401C421CD163687961DBB2682B02
:101F500007D1E3681B091360A4680123002CECD0AF
:101F60007B610F232340022B0DD17B692109002BBC
:101F7000E4D0AB6A0022DB6A686A9847BD4609B0C4
:101F8000F0BD0023ECE77B69002B02D1A3681B099D
:101F90001360260063681B0A5A1E9B001B193A61D6
:101FA000FB60B3680436180915F0FCFE3B691B188A
:101FB0003B61FB68B342F4D16A463B6926000733B4
:101FC000DB08DB00D31A9D463B60BB60B368043678
:101FD00018091C23F91815F0F8FEFB6901001A0016
:101FE000B8687B6038F0C0F87A68BB689446FA68D5
:101FF0006344B24218D13969386815F0F5FDAB6A0F
:102000000100DB6A0022686A98477B69002BB5D023
:10201000FB680434A342B1D0A36800221909AB6A5B
:10202000686A1B6D9847F3E75A1CBA602E221A7033
:10203000CCE7002906D0032382680B40134301D16B
:102040000B68836070470000436870B50D000400A2
:102050001100002B07D104480EF0A2F9290060609E
:102060002000FFF7E6FF70BDC4EF0310F0B50D00D0
:102070000162002142702B7891B0049204008E4AD4
:10208000C160072B2DD1049B012B05D0036B021DD2
:102090001B680499C06A98476378EF68032B10D1D6
:1020A000380046210FAA0C3039F0CAFF236B01001B
:1020B0009B680F9AE06A984763686883002B00D09A
:1020C000BCE03969002945D00F250D40022D3DD1D6
:1020D0000B09752B40D009D83E2B3FD05E2B0AD080
:1020E000764A2000FFF7B0FF11B0F0BDEA220325C9
:1020F00092009342F4D17B6919210DAA0CA80C938C
:1021000039F09EFF00230A900893089B0A9A934295
:1021100026D16378012B15D9236B29005B68E06A0F
:1021200098476378042B0DD1206A0395438BE26AAC
:10213000029300230193009393680521D2680069FC
:1021400003F0A9FB6368002B78D1CDE720005C4A3F
:10215000FFF77AFF0225CEE70025CCE70125CAE785
:10216000089B9B000693069A0D9B9958FF224B688B
:102170001340082B02D1089B0133C5E7052B01D082
:10218000504AAEE7CB68002BFAD1FF208B685A6823
:1021900002402C2AF4D19E681D3A3240022AEFD127
:1021A000DB680793002BEBD09B07E9D1079B5B68AB
:1021B00005930340302BE3D10798A4210EAA0830E1
:1021C00039F03EFFAD23360905909B009E421CD19D
:1021D000012805D10F210E9A13680B40022B04D061
:1021E000394A0D9B069959587BE7E1684B1CE3601F
:1021F000049B012B1ED01268236BE06ADB68120976
:102200009847002816D1314AEBE7F3235B009E4242
:1022100017D1059B012B04D10E9B1968059B194210
:1022200001D12B4ADDE7049B012B03D0E06A491062
:10223000FEF77BF96368002B9DD0079F3B68A36086
:1022400052E7244B9E4229D1059B012B06D90E9BB8
:1022500001221B681E001640134201D11E4AC0E72E
:10226000049A012AE6D05B100B930E9AB30098589B
:102270000FA939F09DFE002801D1184AB1E7E36AA1
:102280000F9809930FF002FB0B9902000998FEF7D3
:1022900053F9059B0136B342E7D1CBE7049B012BF1
:1022A000C8D0236B31001B69059A9C46E06A6646DC
:1022B0000E9BB047BEE7C04638C503105CC503108F
:1022C00069C5031091C50310B4C50310D0C5031030
:1022D000E0C5031031020000FCC5031021C6031045
:1022E00010B5024AFFF7B0FE10BDC04643C603104A
:1022F0004B6870B5DBB20400092B10D1858A094BFD
:102300009D4203D12000084AFFF79EFE638B228B7B
:102310002900D21AA36A606A5B6F984770BDC58AAC
:10232000EDE7C046FFFF000060C6031070B5140063
:1023300005000E001278002B13D0002A07D0032AC4
:1023400005D0104A31002800FFF77EFE08E0032682
:1023500026706168286A17F0ADFB002800D006706F
:1023600070BD002A0AD1012323702100006A17F0F2
:10237000AAFB2378044A012BF2D1E3E7062AEFD027
:10238000024ADFE780C603109FC60310BDC60310D4
:1023900070B500260500B14210D00F230B40022B70
:1023A0000ED10C0920000BF0A1FD061E06DA22005A
:1023B000054906480EF07EF800266860300070BDC2
:1023C000034AFFF741FEF9E7DEC6031078F0031079
:1023D00070C5031010B5040062780B00006A012A72
:1023E00002D117F046FB10BDA16A02001031606AED
:1023F00003F01FFAF7E7000070B505000C1E1AD0B5
:10240000CB0705D5836A49105B6B686A984712E071
:102410008B0714D00F2309091C40022C09D0062C6D
:102420000AD0052907D0836AC9B21B6B406A984756
:1024300001E0FFF7CFFF70BD836A9B6BE5E7836A1E
:102440000968DB68406A98476368034ADBB29B000F
:10245000210028009B58D9E74CC90310F0B50500AE
:102460000C001700032685B00193200039F070FDA1
:10247000002807D0002F0CD1AB6A01999B6E686AC7
:10248000984706E0200039F003FD002803D0002F14
:10249000F2D105B0F0BD002C43D0344241D1636885
:1024A0001A0A0292FF2213401E2B1AD1002F1CD0B1
:1024B000029B9E003619B442EBD0A1683A00280076
:1024C000019BFFF7CBFF0434F5E721000122B000A8
:1024D00008310958039B28007A40FFF7BFFF0136F7
:1024E00008E01F2B17D1002FE2D00026EB680393E2
:1024F0000133EB60029B013BB342E6DC029E019B91
:102500000136B60031593A002800FFF7A7FFAB6A41
:1025100003999B6AB3E7202B03D11F3BA4685F405C
:10252000A3E721002800FFF767FFAB6A3900DB6EE5
:10253000019A686A9847ACE7036A70B51B78040093
:10254000072B05D0022B03D0144AFFF77DFD70BD89
:102550008D68002D0FD1A36A0F211B6B606A98470D
:10256000A36A606ACC3300211B68984701212000D0
:10257000FFF77CFBEBE7AB070BD16B68DBB2AF2B54
:1025800007D12000A968FFF737FF2000FFF754FCB0
:10259000DDE729002000FFF72FFFE1E7F0C6031079
:1025A00070B5437804001500CE68012B06D1036A8C
:1025B0000A001B8B2900FFF77AFC706100232000C2
:1025C00071691A00FFF79AFB2000F168FFF714FF0A
:1025D000062D05D1A36A002188331B68606A9847DD
:1025E000A36A0121BC331D680023606A1A00A84752
:1025F00070BD70B50D000400C968FFF7FDFEA96845
:102600002000FFF7F9FE70BD4B6870B5DBB2040027
:102610000D00342B11D18968FFF7EEFEED68AD682F
:10262000002D10D1A36A0F211B6B606A9847A36A23
:102630000422A03302211B6819E0836A0F211B6B5F
:10264000406A9847EBE70326354225D16B68DBB239
:102650009A2B0FD1A36A0F211B6B606A9847A96858
:10266000002910D10422A36A0231A0331B68606ADA
:10267000984770BD9B2B0FD1A9682000FFF7BCFEC7
:10268000EB689968ECE72000FFF7B6FEA36A042226
:10269000A03331001B68EAE729002000FFF7ACFEF9
:1026A000C5E710B504008968FFF7A6FEA36A0021FC
:1026B000DB6C606A984710BDF0B58D6887B0040088
:1026C0000292002D09D1002A26D002222900836A15
:1026D000A0331B68606A98471EE003272B003B402D
:1026E00001933D4200D08FE0FF266B683340372BCB
:1026F00014D1029B002B06D0836A0222A033012151
:102700001B68406A984720002900FFF775FEA36AFE
:10271000606AA4331B68984707B0F0BD9F2B73D144
:10272000E86843683340A12B5ED1A221083005AA96
:1027300039F086FCA9680390002926D0394224D1BB
:102740004B681E40372E20D1029B002B06D0A36A77
:10275000411CA03302221B68606A98472000A968C8
:10276000FFF74AFEA36A606AA4331B6898470127F3
:10277000019B039A93420DD1002FCDD11900A36A7A
:102780000322A0331B680131A4E72000FFF734FEC9
:102790000027EDE70026019B059A9B009958B1425E
:1027A00008D00323194205D14E68FC331E40373E42
:1027B00073425E412000FFF71FFE002F10D0002E55
:1027C00005D1164A29002000FFF73EFCA4E7A36AC2
:1027D000606AA4331B689847019B01330193C7E7E4
:1027E000002EF9D00E4AEDE7AB68002B06D03B4235
:1027F00004D15B6804221E40372E00D00522290038
:102800002000FFF7CDFE87E729002000FFF7F4FD49
:10281000A36A0322A03301211B685BE709C70310E9
:1028200026C7031010B50122FFF746FF10BD70B593
:102830000D00C9680400FFF7DFFDAB6802211B092A
:10284000DBB2332B01D03F3BD9B2A26A606A983227
:102850001368984770BDF8B54B680C00896805008F
:102860001F0A0026FFF7C8FD0C340236B74200DC11
:10287000F8BD61682800FFF7BFFD2368686A190981
:10288000AB6A24399C331B68C9B298470834ECE71B
:10289000F7B54B680D001F0089681B0A04000193FF
:1028A0000126FFF7A9FD0D3FFFB2019B9E4200DB11
:1028B000F7BD2B00B200083399582000FFF79CFDAC
:1028C000A36A39009C331B68606A98470136ECE7BD
:1028D000F7B54B680D001B0A896800930400FFF7E9
:1028E0008BFD009B0027032B02D9E7687B1CE3606C
:1028F00001260C350195009A731C9A4221DC032AAB
:102900001EDDE568606A6B1CE360A36A29009B6EAC
:102910009847A36A39009B6A606A9847A36A0121B5
:102920009B68606A9847A36A606A1B6E9847A36AAF
:10293000606ADB6D9847A36A29009B6A606A9847C2
:10294000F7BD019B20005968FFF756FD009B02363A
:102950009E4207DAA36A606A5B6D9847A36A606A61
:102960005B6E98470F21019BA26A1B689C3212681C
:10297000606A19400A2914D11B09DBB20439252BDE
:1029800001D0343BD9B29047009B9E4205DAA36A3E
:102990003A0000211B6F606A9847019B083301933E
:1029A000A9E7FF2559682940852901D15339EAE76C
:1029B0009B680721002BE6D03321E4E710B5040023
:1029C0008968FFF719FDA36A032198331B68606AC1
:1029D000984710BDF7B54A680E00D3B21E3B594266
:1029E0004B4104000025C768DBB201937B1CC36028
:1029F000130A0093009B9D4205DBA36A39009B6A82
:102A0000606A9847F7BD3300AA0008339958200040
:102A1000FFF7F2FC009B01359D42EEDAA36A3A0013
:102A20001B6F0199606A9847E4E700000F2370B5B7
:102A30000B400400022B11D04B68DBB2492B01D0B4
:102A40004F2B02D10123A37070BD4A2BFCD0502B19
:102A5000FAD0482B0DD10D69002D0CD1A378002B95
:102A6000F2D1638A002BEFD020001D4AFFF7ECFA69
:102A7000EAE7CD68F0E7A378002B28D0238A8E6898
:102A800001339BB22382012B0FD1618AA36A606A52
:102A9000002919D0A03300221B689847A36A02229C
:102AA000A03300211B68606A984729002000FFF7C7
:102AB000A3FCA36A606A9B6B31099847A36A606AAA
:102AC000A4331B689847BFE71B6C9847E6E7638A07
:102AD0002900013320006382FFF78EFCB4E7C04673
:102AE00045C70310F7B504000E00C568CF686B1C1E
:102AF0000193AB1C0022B968C3602B00FFF7AEFC4A
:102B0000B1682000FFF778FCA36A691C606A9B6EBD
:102B10009847A36A2900606A9B6A98470121A36AC3
:102B2000606A9B6849429847F9682000FFF764FC97
:102B3000A36A01999B6A606A9847F7BDF0B543693B
:102B400085B00393C668438B771C0293B31CC360A4
:102B5000038B04008682C782438388680D0039F0A6
:102B6000F7F9002821D1E368A86801930133E360F5
:102B700039F08EF9002804D1A36A39009B6E606A8F
:102B80009847A36A01999B6A606A98472000E968A0
:102B9000FFF732FCA36A39009B6A606A98470122FA
:102BA0002000019BA968FFF759FC039B200063618B
:102BB000029B29696383FFF71FFCA36A31009B6AAC
:102BC000606A984705B0F0BDF0B5C6680400731C94
:102BD000C36087B088680D0039F0BAF9021E20D1B1
:102BE000E76820007B1CA968E3603B00FFF736FC28
:102BF0002000E968FFF700FCA86839F049F90028CF
:102C000020D12B69002B02D16B69002B04D0A36A61
:102C100031009B6E606A9847A36A39009B6A606ABC
:102C200098472800712105AA103039F009FA0023CD
:102C300003900193019B039A93420AD12000696992
:102C4000FFF7DAFBA36A31009B6A606A984707B016
:102C5000F0BD019B059A9B009F58B86839F078F940
:102C6000021E1BD1E368200002930133B968E360C0
:102C7000029BFFF7F3FB2000F968FFF7BDFBB86884
:102C800039F006F90028DDD1A36A31009B6E606A35
:102C90009847A36A02999B6A606A9847019B01332F
:102CA000C7E770B58D680400002D06D12900836A3E
:102CB000C8331B68606A984770BDAB070FD16B685B
:102CC000DBB25E2B0BD1A968FFF796FBE968200009
:102CD000FFF792FBA36A0221C8331B68EAE72900C9
:102CE0002000FFF789FBA36A0121C8331B68E1E7D5
:102CF00010B504008968FFF77FFBA36A606ADB6D8B
:102D0000984710BDF8B505000C004B681E0AB700C7
:102D1000CF19BC4207D1AB6A3100A033686A0022E8
:102D20001B689847F8BDA1682800FFF765FB0434CD
:102D3000EFE7896810B5002906D1836A0A00A0333D
:102D40001B68406A984710BD4B681B0A022B0CD1C8
:102D5000CB68002B09D09A0707D15B68DBB2AC2B9C
:102D600003D10622FFF71CFCEDE7FFF7CBFFEAE7F4
:102D7000F8B505000E0000244B681F0ABC420FDAAC
:102D80003300A200083399582800FFF735FB6B6821
:102D9000002B06D00234A4002800A159FFF749F9FE
:102DA000F8BD0134EAE710B50400FFF7E1FFA36ABC
:102DB00022219C331B68606A984710BD70B58D68EE
:102DC0000400002D07D101222900836AA0331B686B
:102DD000606A984718E00322154221D16B68FF20F2
:102DE0001900014092291BD11B0A022B0DD1E96861
:102DF00000290AD0114208D14B680340AC2B04D102
:102E000029002000FFF7CCFB70BD29002000FFF750
:102E1000AFFFA36A6968A03301221B68090AD7E7DC
:102E200029002000FFF7E8FA0122A36A1100A0336D
:102E30001B68CDE7F8B58223174A9B00D7580400DA
:102E40000D00002F26D1C6680122731CC36089685B
:102E50003300FFF703FBA36A1F2101225B69606A4D
:102E60009847E96800290AD02000FFF7C5FAA36A4D
:102E70003A00BC331D6801213B00606AA847A36A81
:102E80000121C8331B68606A9847A36A31009B6AB6
:102E9000606A9847F8BDC046C04F0020F8B5036A85
:102EA00004001B78072B03D01B4AFFF7CDF8F8BDB1
:102EB0008D68002D0AD1836A0F211B6B406A9847E9
:102EC000A36A606AC4331B689847F0E703232A00AB
:102ED0001A401D421ED16B68DBB21B2B1AD1C6688B
:102EE000EF68731CC360B9683300FFF7B7FAA968CD
:102EF0002000FFF781FAA36A606AC4331B68984711
:102F0000A36A31009B6A606A9847F9682000FFF75E
:102F100073FAD5E72900F9E773C7031010B50B0062
:102F20004178026A012904D11900100002F071FCF5
:102F300010BD816A406A183102F07BFCF8E700009E
:102F4000F7B5032704000D00160039420CD00F23FB
:102F50000B40022B13D10909D30702D4FFF7DEFF80
:102F6000F7BDFFF737FAFBE74968FF200B00034086
:102F70002D2B7CD009D8062B0CD02C2B13D029005C
:102F800020004E4AFFF760F8EAE72E2B00D183E0DD
:102F90009D2BF4D1002EF2D12A00090A083220001C
:102FA00000F0F8F8DCE7022A03D02000A968FFF758
:102FB00023FAEB680093002BE1D00323009A0099D9
:102FC0001A401942DBD14B680F00D9B28E2909D1C2
:102FD0001B0A17000193022E1AD1019B009A01339C
:102FE0009B009F587B68DBB2312B26D1022E14D177
:102FF000A36A606A5B6E9847A36A0121DB6C19E0E3
:10300000009BBA00083320009958FFF7F5F9013703
:10301000019B013B9F42F3DBDFE72000B968FFF72C
:10302000EBF9A36A012EE8D19B6D606A98470021F5
:10303000A36ADB6C606A984792E7322B9FD1A36A40
:10304000606A012E09D15B6D98470022A36AB968B6
:103050001B6D0909606A984782E7022E01D11B6E39
:103060009847B968A36A01221B6D0909F2E7AA68AB
:10307000002A84D0002E82D15368190A022909D16E
:10308000D368002B06D0980704D15B68DBB2AC2B69
:1030900000D174E7083282E7002A00D06FE7A96800
:1030A0000A1E00D17BE7394203D14B6818409228B1
:1030B000E2D02A000121083271E7C0468DC7031013
:1030C000F7B504000D00C6680193B31CC360836AA2
:1030D00031009B6A406A00929847A36A771C8C3340
:1030E00039001B68606A9847A96800222000FFF732
:1030F00027FF2D69002D2DD120000099FFF77CF9C5
:10310000236AA06A197806291CD1CC3003682900EB
:10311000606A984720000121FEF7A8FDA36A606A53
:10312000DB6D9847A36A3100606A9B6E9847A36A7B
:103130003900606A9B6A9847A36A606A90331B688B
:103140009847F7BD019BA8309A0005680532606A70
:10315000A847E7E7FF226B681340AD2B07D1A968AA
:10316000330000222000FFF779F9ED68C2E7200064
:10317000E968FFF741F9A36A606A883301211B6897
:103180009847019B29002000009A0133FFF798FF20
:10319000C8E70000F0B5012705000C0085B00291DA
:1031A000039201927F42029B1E1B002C15D17B1CB7
:1031B00005D1AB6A3100AC331B68686A9847B442EA
:1031C0002AD0039AA300D1580022A74200D18968CF
:1031D0002800FFF7B5FE0134F1E7019B19680029CB
:1031E00011D0032319420ED1FF224B681340222B2A
:1031F00009D17B1C0CD1AB6A3100B0331B68686A03
:10320000621E98473700019B013C04330193CAE7D3
:103210002800024AFEF718FF05B0F0BDA8C703104A
:10322000F0B585B004001F0001910292002904D17D
:103230003900FFF7E1F805B0F0BDC668731CC36044
:10324000029B1D68002D2BD003232A001A400392F5
:103250001D4225D16B68DBB27B2B21D1A968FFF71A
:10326000CBF831002000039AFEF708FD2000039AF6
:10327000E968FFF765FE029A019904323B002000DD
:103280000139FFF7CDFFA36A3100DB6F606A984711
:1032900020000321FEF7EAFC2000FEF7FFFCCAE74E
:1032A00029002000FFF7A8F8200000223100FEF7D7
:1032B000E5FCA36A606ADB6D9847DCE737B505007B
:1032C00008000C0001AA7A21083038F0B9FEE36842
:1032D0000100019A2800FFF7A3FF37BDF0B50D00EC
:1032E0000F21AB6804008BB00B40022B00D001E132
:1032F000EB68002B00D1FDE00322134200D0F9E07F
:10330000FF205A6802402C2A00D0F3E09A6811404E
:10331000022900D0EEE012097C2A00D0EAE0DA6847
:1033200053681840302800D0E4E09368A23109AA1D
:1033300008A8089338F084FE431E022B00D9D9E078
:10334000099B1E68012800D1C7E05F68022800D1F0
:1033500014E19B680193DB0700D4CBE0019B5B1079
:1033600000D1C7E0002E07D0B30705D17368DBB2E8
:10337000A63B022B00D8BDE0002F07D0BB0705D12C
:103380007B68DBB2A63B022B00D8B3E0AB683A0007
:1033900004932B6905936B69E56803936369A582C0
:1033A0000793638B06936B1CE382238B63832B1D34
:1033B000E36001231A4002921F4203D1390020002A
:1033C000FFF71AF831002000FFF716F8A36A606AC9
:1033D0009B6EE91C9847A36AA91C9B6A606A984780
:1033E000A36A606A5B6D9847002220000499FFF78A
:1033F000A7FD20000599FEF7FFFFA36A606A9B6A9C
:10340000691C984720000199FEF7F6FFA36A0E2178
:103410009C331B68606A9847A36A606A9B6AE91CD0
:103420009847029AA36A002A5CD19B6D606A98470C
:10343000A36A606A1B6E9847A36A019A9C330021B5
:103440001B68606A002A00DA012100269847A36AF7
:103450000121DB6E606AAA1C9847079B6361069B8B
:103460006383039BB3421ED0A36A606ADB6D9847F7
:10347000029BB34203D1A36A606ADB6D98472000C8
:103480000399FEF7B9FFE668606A731CE360A36AFC
:1034900031009B6E98470121029B606A5940A36AE4
:1034A00001319B689847A36A29009B6A606A984724
:1034B000A36A606ADB6D9847029B002B03D1A36A65
:1034C000606ADB6D9847039B002B04D0A36A310030
:1034D0009B6A606A98470BB0F0BD032337000193E5
:1034E000060049E7606A5B6D984739002000FEF7E7
:1034F00083FFA1E76369E6680293638B771C0193FE
:10350000238B200063831F4BE9683343A382F31CA2
:10351000E360E782FEF770FFA36A606A88330121E7
:103520001B689847A36A3900606A9B6A9847A36A38
:10353000606A8C331B68B11C984700222000A96880
:10354000FFF7FEFC20002969FEF756FFA36A390049
:10355000606A9B6E9847A36AB11C606A9B6A984731
:10356000A36A606A90331B689847029B20006361DE
:10357000019B69696383FEF73FFFA7E7032301937C
:10358000F0E6C0460080FFFFF0B587B0040001916F
:1035900002920393002904D10399FEF72DFF07B08F
:1035A000F0BDC668731C0093B31C0493331DC36045
:1035B000029BF71C1D68002D00D1D2E003232A00D6
:1035C0001A4005921D4200D0CBE06B68DBB27B2B2A
:1035D00000D0C6E0A968FEF70FFFA36A606A5B6DC2
:1035E0009847C2212000FF31FEF73EFC2000059ADB
:1035F000E968FFF7A5FC022231002000FEF73EFB40
:10360000A36A606A03219B689847029A0199200087
:10361000039B04320139FFF7B7FF0321A36A606AF5
:103620009B6849429847A36A320004330099DD6FD2
:10363000606AB31CA847A36A606A5B6D9847A36A77
:10364000606A5B6E9847A36A606A1B6E9847E121C7
:10365000A36A00224900606A5B6C9847A36A606AAB
:103660005B6E9847A36A606A5B6E9847A36A606A5C
:103670005B6D9847A36A00220A21606A1B6D984718
:10368000A36A606A1B6E9847A36A606A0F211B6B6E
:103690009847A36A0321C0331D680023606A1A009B
:1036A000A8472000FEF7C8FBA36A3A000021606A21
:1036B000DB6E9847A36A606ADB6D9847A36A606A0D
:1036C0000F211B6B9847A36A3900606A9B6E98476D
:1036D000A36A606A02219B689847A36A0499606A9A
:1036E0009B6A9847A36A606A5B6E9847A36A606AA0
:1036F0005B6E9847A36A0099606A9B6A9847E121CC
:10370000A36A0022606A5B6C49009847A36A0F2194
:10371000606A1B6B9847A36A606A5B6D9847A36AEF
:10372000606A5B6D9847A36A0321C0331D6800235C
:10373000606A1A00A8472000FEF77EFBA36A606A51
:10374000DB6D98470121A36A606A9B6849429847EC
:10375000A36A606A39009B6A98472000FEF79EFAC8
:103760001DE729002000FEF747FEA36A606A5B6D33
:103770009847C2212000FF31FEF776FBA36A606AFA
:10378000DB6D984737E7F7B5CD6804000E00002DD4
:1037900028D10378002B18D0036A1D78002D14D18E
:1037A000E7214900FEF716FEB1682000FEF724FE6F
:1037B000A36A2A00BC331E6801212B00606AB0474F
:1037C000A36A606ADB6D9847D0E0B1688B0700D1CF
:1037D000C4E00F230B40022B00D0C7E02000FEF70F
:1037E0000BFEEDE7AB0700D0C1E06B68DAB25B2AF5
:1037F00013D1ED68002D00D0B9E0006A0378072BE3
:1038000000D0B3E0896808330B40022B00D0ADE054
:103810000909573A16F02DF9A8E0562A13D1553A5E
:103820008968FFF78DFB2000E968FEF7E5FDA968D0
:10383000A36A09093E399C331B68606AC9B298477C
:103840000222B16886E0572A00D090E01B0A5F1E72
:1038500001339B005959FEF7CFFD002F03DDA36A0A
:10386000606A5B6D9847B16800222000FFF768FB33
:103870000026BE427ADA0136BE4203DAA36A606AE3
:103880005B6D9847291DB30000222000C958FFF73F
:1038900057FBEEE76B68FF211800019308400628EC
:1038A00069D1B768002F66D0174264D178680300E9
:1038B0000B40062B5FD1030A00930098019B1B0A63
:1038C000834258D10300023B012B54D8BB68002B24
:1038D00005D0134203D15B680B40222B4BD0FB6811
:1038E000002B05D09A0703D15B68DBB2222B42D0B4
:1038F000009B022B08D03B69002B05D09A0703D10F
:103900005B68DBB2222B36D02000A968FEF774FD7D
:103910002000E968FEF770FD009B032B07D1200013
:103920002969FEF769FDA36A606A5B6E9847A36A1E
:10393000606A1B6E984700222000B968FFF700FB01
:1039400000222000F968FFF7FBFA009B032B0DD142
:10395000002239692000FFF7F3FA07E0002900D1BF
:103960003CE74B68DBB23A2B00D037E7F7BD0322C8
:10397000154200D18EE729002000FEF73DFD002210
:103980005FE700000023F7B5C360030034334270E3
:10399000016204000D0017001A70032A03D1C08EC3
:1039A000002828D1A0630026A36A39002A001B68DA
:1039B000606AE686984706212000FEF757F9677887
:1039C000012F01D16E84AE84EE68002E17D0B307AC
:1039D00015D17368DBB23F2B11D12000B168FEF71F
:1039E0000BFDA36A606AC4331B689847A36A606AC8
:1039F0005B689847FEBD800006F001F8D2E72B789F
:103A00003100002B17D0072B1ED1012F12D100231C
:103A1000A37046225B4B2000F168FEF74EF92B8B1A
:103A2000032B07D120003169FEF7B2FC8301E88A3D
:103A30001843E88271692000FEF7DEFCA36A0F21BB
:103A40001B6B606A9847CCE7022B1BD1A36A3168D5
:103A5000DB68606A98476378012B07D10023A37065
:103A60004C222000484BB168FEF727F92000F1688E
:103A7000FEF7C2FCEB8ADB07B3D5A36A606ADB6D95
:103A80009847DBE7033B032B4FD8F3680193012FE3
:103A900005D104223900206A15F0EBFF6F83A36A79
:103AA0003168DB68606A98472B78032B24D10122A8
:103AB000A36AA0331B680021606A98472B78062B05
:103AC00028D1A36A606A1B6C984701212000FEF789
:103AD00081FCA36A606A1B6C9847A36A606A1B6CCE
:103AE000984700232000B2680199FFF7E9FA2B7884
:103AF000062B00D075E7A1E7042B04D1A36A0222AC
:103B0000A0331B68D7E7052BD8D1A36A0322A033C3
:103B10001B68D0E720000121FEF75CFCA36A0121AD
:103B200088331B68606A9847DBE7012F04D10422C1
:103B30000A21280015F09DFF17212000FEF74AFCFE
:103B400016212000FFF7EAF9B368606A1909A36A31
:103B50009B6B98471A212000FFF7E0F9200031699C
:103B6000FEF74AFC0A21280015F073FF0278A36AC9
:103B7000042A00D163E742881D690A210023606A94
:103B8000A8472EE7314900103D49001010B5036ADF
:103B900004001A8BFEF7B5F901002000FFF7BEF90B
:103BA00010BD0000F0B58D6804006B6887B0DBB213
:103BB000032B09D12900FFF7E9FF0123AA69D18A64
:103BC0000B43D38207B0F0BD0121026AD28A0A42B8
:103BD00004D129005D4AFEF737FAF3E7162B00D02F
:103BE000A7E0C668E968331DC360FEF705FCC42181
:103BF000A36A606A00225B6CFF319847A36A606A1F
:103C0000C0331B681F0000231A001900B8476369FE
:103C1000606A0393638B0293E3681F00013301938F
:103C20003B000233E360019B0199E382238BA7826F
:103C30006383A36A9B6A984701222000B118FEF7AC
:103C40001DF8A36A606A5B6D9847E2212000490075
:103C5000FEF70AF92000A9680022FFF771F9A36AAC
:103C600000229433606AB11C1B689847A36A711CD8
:103C7000606A9B6A9847A36A606AD0331B6898475A
:103C8000A36A606A5B6D9847A821A36A0122606AF3
:103C90005B69FF319847A36A606A9C3308211B68FF
:103CA0009847A36AF21C0021606ADB6E9847A36AFA
:103CB000606ADB6D9847A36A012294333100606A21
:103CC0001B689847A36A606AF11C9B6A9847A36ABD
:103CD00001219B68606A98472000FDF7DFFFA36A17
:103CE000606AD4331B689847A36A606A9B6AB11CF8
:103CF000984720002969FEF77FFBA36A0199606A53
:103D00009B6E9847039B31006361029B606A6383EB
:103D1000A36A9B6A984720006969FEF76DFBA36A56
:103D2000606A39009B6A9847A36A606ADB6D9847AE
:103D300048E7280005AA7A21083038F081F9EB68B5
:103D40000100059A2000FFF71FFC3BE7C2C70310E4
:103D50000F2370B50B4004000D001600022B02D09B
:103D60001D4AFEF771F931002000FEF745FBA36AFA
:103D7000606A5B6D984763782E09012B0FD1226A28
:103D80001378033B032B0AD85068310001F041FD42
:103D90000278032A08D13100206A15F06AFE31004A
:103DA0002000FFF7BBF870BD00223100206A15F03B
:103DB00060FE236A02005B6859684B424B41DBB2EC
:103DC000002904D01178012901D1002111702900A6
:103DD0002000FEF7ABFAE2E78DC70310F0B589B01B
:103DE000059104920400A42107AA05A81E0038F03A
:103DF00027F900231F000390019302930093019B76
:103E0000039A934213D1002F04D0A36A02995B6BEB
:103E1000606A9847049AA36A606A002A00D177E032
:103E2000C0331C6831003B00009AA04715E0019B9D
:103E3000079A9B009D58002D5ED003231D425BD145
:103E4000FF216B680B40A62B1AD1A43B1F4206D062
:103E5000304A29002000FEF7F7F809B0F0BD019BB9
:103E60001D2B01D92C4AF4E70123019A1F439340EB
:103E7000029AA9681A4302922000FEF7BDFA23E0D5
:103E8000A72B10D1A53B1F43A36A606A1B6C984700
:103E9000A9682000FEF7B0FA009B01330093019B54
:103EA00001330193ABE7A82B26D1EA68002A0FD093
:103EB000A53B1A420CD153681940AA2906D120000B
:103EC0009268A968FFF744FF0136E8E7AC290DD0F6
:103ED0000F23A9680B40022B01D0104AB9E7A36A4F
:103EE00009099B6B606A9847E968D2E706222900B6
:103EF0002000FEF755FBE7E702231F4201D0084AE6
:103F0000A7E7009B002B01D0064AA2E72900B3E7F0
:103F1000BC3386E7E8C70310F7C7031005C80310D2
:103F200026C803103EC8031070B50D004178040088
:103F30001300012903D12A00FDF7B9FF6861A36AC4
:103F4000606A9B6C984700236E691A00310020005C
:103F5000FDF7D4FEA36AB18A9B6B606A9847E96853
:103F6000002909D003230A001A40194204D14B68E2
:103F7000DBB2A32B00D11100200002230022FFF7A7
:103F80002DFFB08A70BD002310B51A008968FFF7B5
:103F900025FF10BDF7B50C0089680500FEF72CFA67
:103FA000E668002E2FD07368DAB28E2A2CD0260055
:103FB00001230C3600930F22296AA3680978002494
:103FC0001A40072900D07AE0022A50D11A099A2A09
:103FD00000D076E031684A68D2B2302A00D070E072
:103FE0008A68A24200D06CE00A212800FEF7F2F9AC
:103FF00001212A6AD36A128D002A09D12800474A72
:104000003168FEF721F8F7BD1B0A00930836D2E7A6
:104010005878084210D059682800FEF7DBF9009A5A
:10402000AB6A022A0BD8BC331C68002302211A0099
:10403000686AA04701241AE0013A0833DCE7FF224E
:104040007068416811403229EDD1B46861680A4056
:10405000302AE8D181685B6C686A09092F3A984771
:10406000A168002301222800FFF7B8FE0324009B6B
:10407000A342C8D9631C00980193621CA300F158A5
:10408000824245D2FF204A680240322A40D1F318CA
:104090005F687B680340302B3AD18968AB6A0022A5
:1040A0005B6C686A09099847002301222800B968F7
:1040B000FFF794FE019C0134D9E70024D7E7022AD8
:1040C000D5D18822FF3200241B099342CFD1FF2192
:1040D00033685A680A40302AC9D19C68002CC6D07F
:1040E000032322001A401C42E7D1636814000B40EE
:1040F0002F2BBCD1AB6A1100BC331F68686A130058
:10410000B8473368220028009968FEF7D5FA91E78E
:104110002800FEF771F90194CCE7C0465FC8031090
:10412000036A10B51B780400072B05D0022B03D0BF
:10413000054AFDF789FF10BD2000FFF72BFF200087
:10414000FDF77AFEF7E7C04677C8031010B5CA68D6
:104150008968FFF7FDFD10BD10B5036A04001A8BD6
:10416000FFF7E2FE01002000FEF7D8FE10BD0000C0
:10417000F0B50400080089B005910830422106AA74
:1041800037F05EFF0027236A02901D8B0197029B88
:104190009F420BD1059BD9684B68DBB2032B51D1F1
:1041A0002A002000FDF7ADFE050059E0069ABB008D
:1041B0009B586C21180007AA0830039337F040FF82
:1041C000079B049019680A09732A0ED02000FEF795
:1041D00013F90126049B9E4229D3039BD968002929
:1041E0000DD02000FEF708F909E0049A022A08D051
:1041F0002000294AFDF728FF019B01330193013775
:10420000C5E759680B09412B0BD0244A93420AD0C9
:10421000CD32934209D0CB3AFF3A9342E8D10425FC
:10422000EAE70125E8E70225E6E70325E4E7079A40
:10423000B3009958A36A00221B6D606A0909984768
:104240000136C7E7442B17D18E682A0031002000C1
:10425000FDF757FE01230500B269D18A0B43D382D3
:104260000026029B019A9B1AB3420AD8290020001B
:10427000FEF754FE09B0F0BD2A002000FFF754FEFF
:1042800092E7A36A0121BC331F680023606A1A0009
:10429000B8470136E5E7C04690C80310EF020000BA
:1042A0000F23F0B58E6804000D0085B033400A2B53
:1042B00007D0002E30D0B3072ED17368DBB2652B48
:1042C0001CD102960026652103AA02A837F0B8FE89
:1042D0000021039B80003F4AC018984214D13E4BF6
:1042E000EA689A4236D1236A1F78002F16D0290037
:1042F00020003A4AFDF7A8FE05B0F0BD622B0BD1B5
:10430000B3680293F668DEE71F68974202D1013175
:104310000433E2E70331FBE70021E0E7A36A606AC8
:104320005B6B9847A36A606A05219B6B9847A36AF9
:104330003A00A0331B68606A0121984731002000D1
:1043400003AAFDF7F3FDA36A02223900DB6A606A63
:104350009847D1E7A36A606A5B6B984728006A2197
:104360000C3002AA37F06CFE00270500A36A606AD1
:10437000AF4211D1A033002229001B6898473100B9
:10438000200003AAFDF7D2FD0026A26A606AAE42B1
:104390000BD1D36D9847AFE70299BA0052589B6B87
:1043A0009168013709099847E0E70299B3005F581F
:1043B000BB681B0901930199D36A01229847F968E8
:1043C000002905D101992000FEF7A8FD0136DCE7A0
:1043D0000909F8E7CA0500001A040000AEC8031076
:1043E00037B504000D00836A00215B6B406A984773
:1043F000A36A606A1B6B0F2198472900200001AA5D
:10440000FDF794FD20000199FEF788FD37BD10B53A
:104410000B004178026A012904D11900100001F053
:10442000F8F910BD816A406A203101F002FAF8E71C
:10443000F0B504000F001E00C56887B06B1C059323
:10444000AB1CC360290004920122FDF717FC390060
:104450002000FDF7D1FFA36A002294331B68606A35
:10446000691C9847A36A29009B6A606A9847A36AF7
:10447000606AD0331B689847E368370001930133C3
:10448000E36000230093009B049A934216DB200014
:10449000FDF704FCA36A606AD4331B689847A36ADB
:1044A00005999B6A606A984720000C99FDF7A4FF64
:1044B000A36A01999B6A606A98475DE03B68039331
:1044C000E36802930133E360039B9E68009B013322
:1044D0000093002E52D1049B009A934244D10025B0
:1044E000A36A606ADB6D98472E00039B2000D968A1
:1044F000FDF782FF002D24D0A36A0F211B6B606A99
:104500009847A36A31009B6A606A9847A36A0121B1
:104510009B68606A9847A36A0F211B6B606A984783
:1045200029002000FEF7FAFC29002000FFF76FFFAA
:104530000121A36A606A9B68494298472000FDF701
:10454000ADFBA36A012294331B680199606A984706
:10455000A36A02999B6A606A9847A36A01219B68D3
:10456000606A984704378EE720001E4A3968FDF7D5
:104570006BFD2000FDF792FB07B0F0BD0325032380
:1045800035401E422CD1FF21736832000B40762B40
:1045900002D1D568B6682D09A36A606A5B6D984739
:1045A00031002000FDF728FFA36A08219C331B6817
:1045B000606A9847A36A0021DB6E029A606A984796
:1045C000002D00D18BE729002000FEF7A7FCE6684C
:1045D0000222731C31002000E360FDF74FFB84E7EB
:1045E0000025D9E7CBC80310F0B5C76885B00393A1
:1045F0007B1C16000D0002223900C3600400FDF789
:104600003DFB002E2CD1A36A03219B68606A98476A
:1046100029002000FDF7F0FE0321A36A606A9B6871
:1046200049429847A36A606A0F211B6B9847A36AA7
:104630003900606A9B6A9847A36A606A9B68012197
:10464000984720000B99FDF7D7FE0121A36A606A05
:104650009B68494298472000FDF720FB05B0F0BD5C
:104660000A9B3200009329002000039BFFF7E0FE25
:10467000D8E77FB5CE68050073680C00DBB2782BF5
:1046800009D10022B3680092019313002800A168A9
:10469000FFF7AAFF7FBD742B17D1300003AA772143
:1046A000083037F0CDFC33690200002B07D1F368E6
:1046B00000932800039BA168FFF7BAFEEAE79B6816
:1046C0000193F3680093039BE0E7080003AA7721B6
:1046D0000C3037F0B5FC00230200E9E70F23F7B5F3
:1046E0000B4005000C00022B03D10909FFF78FFED8
:1046F000F7BD002965D00327394262D1FF224B68FC
:1047000013402C2B3BD18968FDF776FEE668002E1E
:1047100057D0310039403E4253D1FF2072683300F8
:1047200010408E280AD10F00130A0193019B013B10
:10473000BB4211DC019B01339B009B595A68D2B2EA
:10474000312A12D128009968FDF756FEAB6A022182
:10475000DB6C686A9847CBE73300BA00083328005F
:104760009958FDF749FE0137E0E7322A29D19968C7
:10477000AB6A686A1B6D0909303A9847B8E72D2B78
:104780001FD18C68002C1CD063681A0A0123022AEE
:104790000AD1E268002A07D03A4205D15368FF22C5
:1047A0001340AC2B0DD0012362685E1C013B120A42
:1047B0009A429DD9B300E1582800FFF78FFF3300DC
:1047C000F2E721002800024AFDF73EFC90E7C046D0
:1047D000E9C80310F0B5437804000D0085B0012B43
:1047E0000FD14B68DBB21E00103E72425641F6B24A
:1047F000102B08D0036A1B78002B04D10F4AFDF759
:1048000023FC05B0F0BD28006D2103AA083037F065
:1048100017FC00270190019BBB42F2D0039ABB001A
:104820009958206A0022090915F023F93300020083
:1048300029002000FDF77AFD0137ECE701C90310DC
:10484000F7B50400006A0192C28A9C461700022351
:104850000D001F401A4205D0334A29002000FDF701
:10486000F3FBF7BD0F263140022917D1A2782909A1
:10487000002A03D0838B0133838303E01700438B2B
:104880000133438301260029EBD0002215F0F1F813
:1048900003780090002B2FD0244ADEE76968019E40
:1048A000C9B22F00B14208D1AB681909A378002B17
:1048B000E0D1438B01334383E4E7614516D1A3780C
:1048C000002BC9D10121A170A9680029C9D00427F2
:1048D0000F263A430E40C282022E03D1F9401F0038
:1048E0000326D0E78B680F001909F9E7A96813437D
:1048F00005260909C382C6E70423009A137056707F
:10490000236A1B8B032BACD1019B482BA9D1002F11
:10491000A7D02000F968FDF73BFD009A030150780D
:10492000184350709DE7C04626C9031035C90310CF
:1049300010B549234822FFF783FF10BD10B54F2360
:104940004E22FFF77DFF10BDF0B5A1B005901020FD
:104950001400069105F034F8D0231B061B68BE4AEC
:104960009B009B5800211B695822436007000AA83E
:1049700035F0F4FB0AAB1C70012301215B4219A83E
:104980000F9305F055F80221069B0122DB00194325
:1049900019A805F087F80123002143601CA80DF039
:1049A000C9FA8323AD4A9B00D35C059A00211268A3
:1049B0000AA8FDF77CFA019017A800F0ADFEA84BFD
:1049C000119C14930023039013900293002C02D0A7
:1049D0000B9D002D20D0119C002C02D00B9B002B96
:1049E00039D000250299039800F09DFE119C0B9B85
:1049F000002C00D13AE1002B00D1E0E0129B0AA884
:104A0000D968FDF716FB129B0C9A02939B8A0699B4
:104A10000B980BF08FFD2CE1238B012221000AA8BB
:104A2000042B08D1FDF722FB0D9B029A9A4200D27B
:104A30000293A468CAE7FEF7A5FF238D9D42F3D237
:104A4000E26AEB00D118D35C012B02D1200015F0F3
:104A50003AF80135F1E70421E28A0A4215D0218DA6
:104A600001394A1C11D00225E06ACA008218507828
:104A7000284225D0002B08D0596815008C461868AC
:104A800042CD42C363461060536000252584238DC8
:104A900004939D421ADB00230120049A9A4244D1D8
:104AA0006568002D0AD000222B8D08931300089909
:104AB0008A4249DB00220125934275D1A4688BE725
:104AC000002BCDD10128CBD11300C9E7E36AEE005A
:104AD0009E192378012B04D173680A2B10D101355C
:104AE000D5E73278012B0BD9012A09D10323337082
:104AF000238B032B13D01022E38A1343E38202E0BB
:104B00003378032BF4D03378042B03D0012273784D
:104B10001342E4D0238C5A1C22847380DFE7706830
:104B200009F0E4F90128EEDCE5E7E16ADA008D1826
:104B30008A5C052A06D16A78024203D1228C6A80F7
:104B4000013222840133A8E7E96AD0000E18095C1B
:104B500007960539012917D8002112E0E66AC80036
:104B6000B4468444305C06280AD10798406809900E
:104B70006046099E4068864202D160464380013308
:104B8000013104988842E9D1013290E7E06AE66A8F
:104B9000D1004018715C062902D14178294202D027
:104BA0004188C9184180013204999142EED1628B4B
:104BB0009BB29A186283228C9B1823847EE7238BF6
:104BC000042B1BD1159B0493002B03D1029801F0F9
:104BD00097FA159000231393224B032221000AA871
:104BE0001693FDF743FA0B9B0493002B04D1042288
:104BF00021000AA8FDF73AFAA468F8E6023B012B67
:104C000024D8002D06D1029B0DAA0BA917A803F0EA
:104C100089FF0500144B13951493022221000AA862
:104C2000FEF7B0FE0B9B0493002BE5D1032221007D
:104C30000AA8FEF7A7FE0B9B002BDDD10422210062
:104C40000AA8FEF79FFE0028F8D0D5E7039B139330
:104C5000034B1493E1E7C046804B0020C04F002077
:104C60004CCA0310E4CC0310ACCF0310002B00D0CF
:104C7000C4E6019B0B9E1B690293002E19D003987A
:104C800000F059FD002D40D11598002801D001F009
:104C90004CFA059837F0B4F901988368019314F041
:104CA000CFFE019B002BF7D10B98002831D009F0E3
:104CB000ADF9199BDC0864001E9B0334A008C018E2
:104CC0008000049304F07CFE03239C430419FC60E1
:104CD0001B991A9CB860A6420AD100231E998B42E8
:104CE000CDD01F989A008058FC680133A050F6E799
:104CF0000A68002A06D0042A04D04B68D2085B1048
:104D00005B001A5201360831E5E7280003F02BFF5B
:104D1000BAE73900019A029800F0D0FD21B0F0BD49
:104D2000D0231B061B68044A9B009B5882B018685E
:104D300001ABC01A02B07047804B002010B5FFF7DE
:104D4000EFFFD0231B061B68044A9B009B585B683F
:104D5000984201D314F014FD10BDC046804B0020D2
:104D60004379012B07D08368C918036981605A8C85
:104D7000914200DD59847047002383714379012BF0
:104D800003D0C26A036A8900CA507047042110B573
:104D90004942FFF7E5FF10BD10B50421FFF7E0FF22
:104DA00010BD032110B54942FFF7DAFF10BD030023
:104DB000406A5A794118032A02D81800596270478C
:104DC0005A6B1018FAE782790300002A01D0180004
:104DD0007047C06A5A794118032A01D8D962F6E7A8
:104DE0009A6AD96280185A6B1018F1E710B50C0056
:104DF0000121FFF7E8FF047010BD70B50400150035
:104E0000FFF7AEFF01212000FFF7DDFF057070BD49
:104E100010B553220121FFF7F0FF10BD10B5542249
:104E20000121FFF7EAFF10BD10B557220121FFF75E
:104E3000E4FF10BD10B558220221FFF7DEFF10BDC0
:104E4000012110B559224942FFF7D7FF10BD10B517
:104E50005A220021FFF7D1FF10BD10B55B220021BF
:104E6000FFF7CBFF10BD012110B55D224942FFF7CE
:104E7000C4FF10BD5E2210B5002901D003215F22BE
:104E8000FFF7BBFF10BD0A0010B5303A0021D2B2C7
:104E9000FFF7B3FF10BD022110B562224942FFF7B0
:104EA000ACFF10BD012110B5632249420400FFF799
:104EB000A4FF0123A37110BD0A00643210B5D2B261
:104EC00049420400FFF799FF0123A37110BD0A00B6
:104ED00010B504006732D2B24942FFF78EFF0123BA
:104EE0002269D18A0B43D38210BD000070B51D002A
:104EF0000400FFF782FF2A0020000249FBF70AFEA8
:104F000070BDC046C74D001070B50D0004001900FB
:104F1000C068160000F04CFC32000300290020009D
:104F2000FFF7E4FF70BD10B50B0010220121FFF761
:104F3000EBFF10BD10B511320B000121D2B2FFF70B
:104F4000E3FF10BD10B501240B005100611A541E7F
:104F5000A2411432FFF7D8FF10BD0B00012110B59C
:104F60001632D2B24942FFF7CFFF10BD10B5193249
:104F70000B000021D2B2FFF7C7FF10BDF8B5C4681F
:104F80001D0026786388042E02D167689E00F551C3
:104F90005D1C6580FFF7AAFFF8BD110010B528332E
:104FA000DAB20B000021FFF7A1FF10BD10B50124FC
:104FB0000B002100022A00D0E11A2A32D2B2FFF7F8
:104FC00095FF10BD10B5002413002200032905D061
:104FD00001342200042901D000240132E3189B008F
:104FE0001343E1432F22FFF781FF10BD10B50B00E3
:104FF00030220139FFF77AFF10BD10B513020B43C1
:1050000089183122FFF772FF10BD0B0010B5012A7D
:1050100007D0022A0BD1012167324942FFF7EDFE8A
:1050200010BD11001B32D2B2FFF76EFFF8E701216D
:105030004942F7E7F7B5060017000193FFF790FE26
:10504000B279002A20D1737914000125022B10D9DE
:10505000F16A019B023C641A316A9B005B58E418B8
:10506000442F12D82300403302DB3F2C00DC150014
:10507000641B3000A91CFFF7A6FE0770002D09D1A4
:10508000442F00D840344470F7BD7F25A542AD4180
:105090006D42EDE7442F02D88023DB01E4187379D9
:1050A000042B06D180231B029C4202D301233836F5
:1050B000337080235B422343E41143708470E3E741
:1050C00010B50B00422200210400FFF7B3FF0123BB
:1050D000A37110BDF8B5174F05000C0016000F4066
:1050E000002A19D10B040ED55921FFF77FFE592153
:1050F0002800FFF77BFE59212800FFF777FE592192
:105100002800FFF773FE3B00422200212800FFF732
:1051100091FF0123AB71F8BD3B0040220021FFF756
:1051200089FF7F23210A994331432800C9B2FFF741
:105130005DFEEEE7FF7FFFFF0B0010B554425441C8
:1051400047326100D2B2FFF775FF10BD10B50B00FA
:105150004B220121FFF76EFF10BD10B50B004A2254
:1051600000210400FFF766FF0123A37110BD0000BA
:105170008223F7B5224A9B00D35805000191022BE8
:1051800029D88769B94226D9C36A4269CF1B9C1ABC
:10519000062F01D90F2C1FD900941F2C01D91F23D2
:1051A0000093009B0026A34203D33E00032F00D9A7
:1051B000032601212800FFF7FAFD009A730113432B
:1051C0000370009BBF1BE41A23003B43E0D1EB6A52
:1051D0006B61019BAB61F7BD80233E001B019F42C9
:1051E00000D3084E02212800FFF7E1FD70223309A9
:1051F00013402343F03A1343037046700094E0E7F2
:10520000C04F0020FF07000010B50400002905D1A1
:10521000552201392000FFF7F0FD10BD022904D10D
:10522000FFF7F6FD2000FFF718FE03215622494242
:10523000F0E7130010B54322002900D144220121D8
:105240004942FFF7F7FE10BD130010B545220029B3
:1052500000D1462201214942FFF7ECFE10BD70B596
:105260000400322913D00025332901D101352C390E
:105270002939CAB2012120004942FFF7BEFD002DA5
:1052800004D0D32200212000FFF7B7FD70BD012517
:105290000621EDE770B50D000400111E05D12B00AD
:1052A00013222000FFF730FE70BD022A04D1FFF761
:1052B000AFFD2000FFF7CBFD02212B001822494251
:1052C000EFE7110010B5002B07D10F2A05D8503A8F
:1052D0000121D2B2FFF791FD10BD2433DAB20B00E9
:1052E0000121FFF703FEF7E7110010B5002B08D1ED
:1052F0000F2A06D80121403AD2B24942FFF77DFD7C
:1053000010BD2633DAB20B0001214942FFF7EEFD52
:10531000F6E770B5049DD2B26C002D02E4182B4361
:10532000059D002D02D00132D2B20134091BFFF7D6
:10533000DDFD70BD07B5019300920B003422002102
:10534000FFF7E7FF07BD13B50124019300920B009F
:1053500036226142FFF7DDFF13BD10B50400C068BF
:1053600000F03DFA2322030001212000FFF7BEFDDB
:1053700010BD0B001033F7B506000D003F2B06D80B
:105380000A00803A0121D2B2FFF737FDF7BD0121B3
:105390002222FFF732FD6B465C1D21007F202F008B
:1053A00022000740EBB2013CED1127706F1C012F6A
:1053B000F5D840273B40013514D1002B02D1013CE8
:1053C0002070941E3000091BFFF7FDFC80260200B0
:1053D000230001AD7642AB420AD16A4612791B1B0B
:1053E000C254D3E7002BEDD00023013C2370E8E743
:1053F00019780133314311700132ECE770B50400C4
:1054000018000B690499D5B208430AD10121891A01
:1054100020222000FFF7B2FD29002000FFF7E6FC64
:1054200070BDD1432122F4E710B51C000B69224363
:1054300004D101213232FFF7A1FD10BD0121332239
:105440004942F8E710B504000D290AD10849C0689F
:1054500000F0C5F92322030001212000FFF746FDDB
:1054600010BD4231CAB20121FFF7C7FCF8E7C046C0
:105470002CFC031070B504000D000F21FFF7E2FFB4
:1054800029002000FFF778FC5C2220000221FFF7B2
:10549000B4FC042120004942FFF762FC70BDF8B55E
:1054A00004000F0016001D000F21FFF7CBFF2000A6
:1054B000FFF7CDFC39002000FFF702FE310020008D
:1054C000FFF75AFC2000FFF7AFFC0122200021214A
:1054D000FFF730FD20000821FFF7C1FE2A00002160
:1054E0002000FFF7A6FEF8BD70B543790400012B3C
:1054F00001D1012033E00025C26B436A05649B1A89
:10550000C3632069038D9D420BD36379032B19D1AB
:10551000606AE36AA0622363C01804F070FA6063F3
:10552000E7E7C26AEB00D118D35C052B08D18E786F
:1055300020000121FFF73BFC0670236C013323643C
:105540000135DEE7042BD4D1626AA16AE36A8A429C
:1055500002D1216B994203D00020A262236370BD67
:10556000230038331B78002B03D00649064813F07C
:10557000C1F8E268C38A5268616B006900F082F981
:10558000B7E7C04638CA031058EF0310F0B54171B1
:1055900087B001000023019202610122383183604B
:1055A00083714361C362436282610B70019B060099
:1055B0001F8C5B8CFF18002F00D11700019B013F4F
:1055C000998CDA8A0F231A40019B03925D8B9B8B87
:1055D00078220493019B8C00DB8B059304231C40F1
:1055E000013B2B401C43FB0013401C434B083F096D
:1055F0000293AD08029B039A3B431343049A2B4347
:105600001343059A01213000134337D1FFF7CFFB35
:1056100004707379022B17D9F56B376C7E236C00FD
:105620001C407D3B3B407F081C433B00AD092B43A6
:10563000029301D080231C4301213000FFF7B7FB08
:10564000029B0470002BE9D1736AF068F363019B3D
:105650000024998A00F0ACF82E4D02002900300099
:10566000FBF758FA0127019B019A5B8B928B9B18E1
:10567000A3424DDD019B0022198D45E0FFF797FB0A
:1056800080235B421C43039B04709C014023302217
:105690001C403B0113401C430123059A1340082280
:1056A0001C43049BDB0013401C43043AAB00134033
:1056B0001C43029B023A5B0013401C43029BD740F1
:1056C0005B080293039B6D085B080393049B5B08D4
:1056D0000493059B5B0805938CE70198D300C06A8F
:1056E0000290C318587838420DD05888A0420AD189
:1056F0005968F06800F05CF8290002003000FBF700
:1057000009FA0134AFE701329142E6DC0521F0E706
:1057100007B0F0BDAF4D001010B50400442004F0F8
:105720006EF9C46010BD10B50400C161880004F0BA
:1057300047F9206210BD10B50400006A04F074F946
:10574000200004F071F910BDF8B504000D00884286
:1057500001D10120F8BD144B984201D10020F9E796
:105760009942FBD008F088FC0600280008F084FC71
:105770008642F3D10D4B9E4211D163686A68934211
:10578000ECD1082600276368BB42E2D9A959A05989
:10579000FFF7DAFF04360028E0D00137F3E72900ED
:1057A000200008F025FFD5E7BCE3031054050410E2
:1057B000CB00022110B5194304000122083004F087
:1057C00071F94368002B06D10122A368DB08013B75
:1057D0005B00134343604068401080B210BD70B559
:1057E00005000E000024EB69A34208D82800310010
:1057F00014300CF049FAEC69013C200070BD2A6AB3
:10580000A30031009858FFF79FFF0028F5D101341D
:10581000E9E710B50122040014F02BF90378012BFD
:1058200004D12378012B02D90423037010BD022375
:10583000FBE770B505000E00100019001C0014F005
:1058400008F903785A1E012A05D80022736821003E
:105850002800984770BD032B02D101227368F6E738
:1058600036684288042B04D1002321002800B04769
:10587000F0E70123F9E710B5102004F0C0F8012388
:10588000837010BD10B502248470013C2340C370A6
:105890004160826010BD8170012110B502AB10CB58
:1058A00042601B8884600B40C370049B0373059B9C
:1058B0001A02C368DBB21343C36010BDF8B504001D
:1058C0006378100022781B020D00134317D00027C5
:1058D00000230A0021000BF08DFA012539002378FE
:1058E0005BB27E1C002B03DB294225D01D4B19E047
:1058F000A35D9A112A40BA4037001143F0E7A3781C
:105900006668042B10D0052B17D0032B20D10A007A
:10591000A36831000BF06EFA134B0360E378002BA1
:105920000AD0124B036007E010201149A46808F068
:1059300096FBC66045608460F8BD10200D49257B4C
:10594000E46808F08CFB240A45608660C460F3E7D5
:105950000A00A36831000BF04DFAE378002BEBD07E
:10596000C4E7C0465CF30310F0F1031078F30310B2
:1059700010F2031040F1031070B51D0080231400D5
:105980005B001A401C4200D02A00FFF797FF022359
:10599000E2091A409A40E1B2AA1809F063FC70BD0E
:1059A000F0B585B004000D00100003A91E0036F00C
:1059B000FFFA002809D12A000B490C480AF07AFDA9
:1059C000636A1860002005B0F0BD039808F020FC61
:1059D0000300B343F7D003002A00054900960348AB
:1059E0000AF068FDECE7C04624CB0310C4EF0310B7
:1059F0003CCB031070B5038CC46A032B03D1002386
:105A0000856A9D4205D18B00E250FAF784FD0120A2
:105A100070BD9E00A659964201D00133F1E70020E7
:105A2000F6E710B5FAF7CEFD10BD8BB270B50500E4
:105A30000C0003844262032B05D1836A0021C06AF3
:105A40009A0034F08BFB211F4B4259412800013151
:105A5000FAF739FD28000021FAF788FD70BD000033
:105A60000F2370B513400400022B09D00A00104820
:105A700010490AF01FFD0025636A1860280070BDF8
:105A80000025836A12099D420AD1238C0025042B2C
:105A9000F4D1094906480AF00DFD636A1860EDE784
:105AA000E06AA90009588A42E8D00135EBE7C04610
:105AB000C4EF031067CB03107CCB0310F8B51E00B6
:105AC0000F2304000D001B481340022B02D11009C4
:105AD00012F071F90378184A1F0000235178B94277
